:0400000000000000fc
:0400010000000000fb
:0400020000000000fa
:0400030000000000f9
:0400040000000000f8
:0400050000000000f7
:0400060000000000f6
:0400070000000000f5
:0400080000000000f4
:0400090000000000f3
:04000a0000000000f2
:04000b0000000000f1
:04000c0000000000f0
:04000d0000000000ef
:04000e0000000000ee
:04000f0000000000ed
:0400100000000000ec
:0400110000000000eb
:0400120000000000ea
:0400130000000000e9
:0400140000000000e8
:0400150000000000e7
:0400160000000000e6
:0400170000000000e5
:0400180000000000e4
:0400190000000000e3
:04001a0000000000e2
:04001b0000000000e1
:04001c0000000000e0
:04001d0000000000df
:04001e0000000000de
:04001f0000000000dd
:0400200000000000dc
:0400210000000000db
:0400220000000000da
:0400230000000000d9
:0400240000000000d8
:0400250000000000d7
:0400260000000000d6
:0400270000000000d5
:0400280000000000d4
:0400290000000000d3
:04002a0000000000d2
:04002b0000000000d1
:04002c0000000000d0
:04002d0000000000cf
:04002e0000000000ce
:04002f0000000000cd
:0400300000000000cc
:0400310000000000cb
:0400320000000000ca
:0400330000000000c9
:0400340000000000c8
:0400350000000000c7
:0400360000000000c6
:0400370000000000c5
:0400380000000000c4
:0400390000000000c3
:04003a0000000000c2
:04003b0000000000c1
:04003c0000000000c0
:04003d0000000000bf
:04003e0000000000be
:04003f0000000000bd
:0400400000000000bc
:0400410000000000bb
:0400420000000000ba
:0400430000000000b9
:0400440000000000b8
:0400450000000000b7
:0400460000000000b6
:0400470000000000b5
:0400480000000000b4
:0400490000000000b3
:04004a0000000000b2
:04004b0000000000b1
:04004c0000000000b0
:04004d0000000000af
:04004e0000000000ae
:04004f0000000000ad
:0400500000000000ac
:0400510000000000ab
:0400520000000000aa
:0400530000000000a9
:0400540000000000a8
:0400550000000000a7
:0400560000000000a6
:0400570000000000a5
:0400580000000000a4
:0400590000000000a3
:04005a0000000000a2
:04005b0000000000a1
:04005c0000000000a0
:04005d00000000009f
:04005e00000000009e
:04005f00000000009d
:04006000000000009c
:04006100000000009b
:04006200000000009a
:040063000000000099
:040064000000000098
:040065000000000097
:040066000000000096
:040067000000000095
:040068000000000094
:040069000000000093
:04006a000000000092
:04006b000000000091
:04006c000000000090
:04006d00000000008f
:04006e00000000008e
:04006f00000000008d
:04007000000000008c
:04007100000000008b
:04007200000000008a
:040073000000000089
:040074000000000088
:040075000000000087
:040076000000000086
:040077000000000085
:040078000000000084
:040079000000000083
:04007a000000000082
:04007b000000000081
:04007c000000000080
:04007d00000000007f
:04007e00000000007e
:04007f00000000007d
:04008000000000007c
:04008100000000007b
:04008200000000007a
:040083000000000079
:040084000000000078
:040085000000000077
:040086000000000076
:040087000000000075
:040088000000000074
:040089000000000073
:04008a000000000072
:04008b000000000071
:04008c000000000070
:04008d00000000006f
:04008e00000000006e
:04008f00000000006d
:04009000000000006c
:04009100000000006b
:04009200000000006a
:040093000000000069
:040094000000000068
:040095000000000067
:040096000000000066
:040097000000000065
:040098000000000064
:040099000000000063
:04009a000000000062
:04009b000000000061
:04009c000000000060
:04009d00000000005f
:04009e00000000005e
:04009f00000000005d
:0400a000000000005c
:0400a100000000005b
:0400a200000000005a
:0400a3000000000059
:0400a4000000000058
:0400a5000000000057
:0400a6000000000056
:0400a7000000000055
:0400a8000000000054
:0400a9000000000053
:0400aa000000000052
:0400ab000000000051
:0400ac000000000050
:0400ad00000000004f
:0400ae00000000004e
:0400af00000000004d
:0400b000000000004c
:0400b100000000004b
:0400b200000000004a
:0400b3000000000049
:0400b4000000000048
:0400b5000000000047
:0400b6000000000046
:0400b7000000000045
:0400b8000000000044
:0400b9000000000043
:0400ba000000000042
:0400bb000000000041
:0400bc000000000040
:0400bd00000000003f
:0400be00000000003e
:0400bf00000000003d
:0400c000000000003c
:0400c100000000003b
:0400c200000000003a
:0400c3000000000039
:0400c4000000000038
:0400c5000000000037
:0400c6000000000036
:0400c7000000000035
:0400c8000000000034
:0400c9000000000033
:0400ca000000000032
:0400cb000000000031
:0400cc000000000030
:0400cd00000000002f
:0400ce00000000002e
:0400cf00000000002d
:0400d000000000002c
:0400d100000000002b
:0400d200000000002a
:0400d3000000000029
:0400d4000000000028
:0400d5000000000027
:0400d6000000000026
:0400d7000000000025
:0400d8000000000024
:0400d9000000000023
:0400da000000000022
:0400db000000000021
:0400dc000000000020
:0400dd00000000001f
:0400de00000000001e
:0400df00000000001d
:0400e000000000001c
:0400e100000000001b
:0400e200000000001a
:0400e3000000000019
:0400e4000000000018
:0400e5000000000017
:0400e6000000000016
:0400e7000000000015
:0400e8000000000014
:0400e9000000000013
:0400ea000000000012
:0400eb000000000011
:0400ec000000000010
:0400ed00000000000f
:0400ee00000000000e
:0400ef00000000000d
:0400f000000000000c
:0400f100000000000b
:0400f200000000000a
:0400f3000000000009
:0400f4000000000008
:0400f5000000000007
:0400f6000000000006
:0400f7000000000005
:0400f8000000000004
:0400f9000000000003
:0400fa000000000002
:0400fb000000000001
:0400fc000000000000
:0400fd0000000000ff
:0400fe0000000000fe
:0400ff0000000000fd
:0401000000000000fb
:0401010000000000fa
:0401020000000000f9
:0401030000000000f8
:0401040000000000f7
:0401050000000000f6
:0401060000000000f5
:0401070000000000f4
:0401080000000000f3
:0401090000000000f2
:04010a0000000000f1
:04010b0000000000f0
:04010c0000000000ef
:04010d0000000000ee
:04010e0000000000ed
:04010f0000000000ec
:0401100000000000eb
:0401110000000000ea
:0401120000000000e9
:0401130000000000e8
:0401140000000000e7
:0401150000000000e6
:0401160000000000e5
:0401170000000000e4
:0401180000000000e3
:0401190000000000e2
:04011a0000000000e1
:04011b0000000000e0
:04011c0000000000df
:04011d0000000000de
:04011e0000000000dd
:04011f0000000000dc
:0401200000000000db
:0401210000000000da
:0401220000000000d9
:0401230000000000d8
:0401240000000000d7
:0401250000000000d6
:0401260000000000d5
:0401270000000000d4
:0401280000000000d3
:0401290000000000d2
:04012a0000000000d1
:04012b0000000000d0
:04012c0000000000cf
:04012d0000000000ce
:04012e0000000000cd
:04012f0000000000cc
:0401300000000000cb
:0401310000000000ca
:0401320000000000c9
:0401330000000000c8
:0401340000000000c7
:0401350000000000c6
:0401360000000000c5
:0401370000000000c4
:0401380000000000c3
:0401390000000000c2
:04013a0000000000c1
:04013b0000000000c0
:04013c0000000000bf
:04013d0000000000be
:04013e0000000000bd
:04013f0000000000bc
:0401400000000000bb
:0401410000000000ba
:0401420000000000b9
:0401430000000000b8
:0401440000000000b7
:0401450000000000b6
:0401460000000000b5
:0401470000000000b4
:0401480000000000b3
:0401490000000000b2
:04014a0000000000b1
:04014b0000000000b0
:04014c0000000000af
:04014d0000000000ae
:04014e0000000000ad
:04014f0000000000ac
:0401500000000000ab
:0401510000000000aa
:0401520000000000a9
:0401530000000000a8
:0401540000000000a7
:0401550000000000a6
:0401560000000000a5
:0401570000000000a4
:0401580000000000a3
:0401590000000000a2
:04015a0000000000a1
:04015b0000000000a0
:04015c00000000009f
:04015d00000000009e
:04015e00000000009d
:04015f00000000009c
:04016000000000009b
:04016100000000009a
:040162000000000099
:040163000000000098
:040164000000000097
:040165000000000096
:040166000000000095
:040167000000000094
:040168000000000093
:040169000000000092
:04016a000000000091
:04016b000000000090
:04016c00000000008f
:04016d00000000008e
:04016e00000000008d
:04016f00000000008c
:04017000000000008b
:04017100000000008a
:040172000000000089
:040173000000000088
:040174000000000087
:040175000000000086
:040176000000000085
:040177000000000084
:040178000000000083
:040179000000000082
:04017a000000000081
:04017b000000000080
:04017c00000000007f
:04017d00000000007e
:04017e00000000007d
:04017f00000000007c
:04018000000000007b
:04018100000000007a
:040182000000000079
:040183000000000078
:040184000000000077
:040185000000000076
:040186000000000075
:040187000000000074
:040188000000000073
:040189000000000072
:04018a000000000071
:04018b000000000070
:04018c00000000006f
:04018d00000000006e
:04018e00000000006d
:04018f00000000006c
:04019000000000006b
:04019100000000006a
:040192000000000069
:040193000000000068
:040194000000000067
:040195000000000066
:040196000000000065
:040197000000000064
:040198000000000063
:040199000000000062
:04019a000000000061
:04019b000000000060
:04019c00000000005f
:04019d00000000005e
:04019e00000000005d
:04019f00000000005c
:0401a000000000005b
:0401a100000000005a
:0401a2000000000059
:0401a3000000000058
:0401a4000000000057
:0401a5000000000056
:0401a6000000000055
:0401a7000000000054
:0401a8000000000053
:0401a9000000000052
:0401aa000000000051
:0401ab000000000050
:0401ac00000000004f
:0401ad00000000004e
:0401ae00000000004d
:0401af00000000004c
:0401b000000000004b
:0401b100000000004a
:0401b2000000000049
:0401b3000000000048
:0401b4000000000047
:0401b5000000000046
:0401b6000000000045
:0401b7000000000044
:0401b8000000000043
:0401b9000000000042
:0401ba000000000041
:0401bb000000000040
:0401bc00000000003f
:0401bd00000000003e
:0401be00000000003d
:0401bf00000000003c
:0401c000000000003b
:0401c100000000003a
:0401c2000000000039
:0401c3000000000038
:0401c4000000000037
:0401c5000000000036
:0401c6000000000035
:0401c7000000000034
:0401c8000000000033
:0401c9000000000032
:0401ca000000000031
:0401cb000000000030
:0401cc00000000002f
:0401cd00000000002e
:0401ce00000000002d
:0401cf00000000002c
:0401d000000000002b
:0401d100000000002a
:0401d2000000000029
:0401d3000000000028
:0401d4000000000027
:0401d5000000000026
:0401d6000000000025
:0401d7000000000024
:0401d8000000000023
:0401d9000000000022
:0401da000000000021
:0401db000000000020
:0401dc00000000001f
:0401dd00000000001e
:0401de00000000001d
:0401df00000000001c
:0401e000000000001b
:0401e100000000001a
:0401e2000000000019
:0401e3000000000018
:0401e4000000000017
:0401e5000000000016
:0401e6000000000015
:0401e7000000000014
:0401e8000000000013
:0401e9000000000012
:0401ea000000000011
:0401eb000000000010
:0401ec00000000000f
:0401ed00000000000e
:0401ee00000000000d
:0401ef00000000000c
:0401f000000000000b
:0401f100000000000a
:0401f2000000000009
:0401f3000000000008
:0401f4000000000007
:0401f5000000000006
:0401f6000000000005
:0401f7000000000004
:0401f8000000000003
:0401f9000000000002
:0401fa000000000001
:0401fb000000000000
:0401fc0000000000ff
:0401fd0000000000fe
:0401fe0000000000fd
:0401ff0000000000fc
:0402000000000000fa
:0402010000000000f9
:0402020000000000f8
:0402030000000000f7
:0402040000000000f6
:0402050000000000f5
:0402060000000000f4
:0402070000000000f3
:0402080000000000f2
:0402090000000000f1
:04020a0000000000f0
:04020b0000000000ef
:04020c0000000000ee
:04020d0000000000ed
:04020e0000000000ec
:04020f0000000000eb
:0402100000000000ea
:0402110000000000e9
:0402120000000000e8
:0402130000000000e7
:0402140000000000e6
:0402150000000000e5
:0402160000000000e4
:0402170000000000e3
:0402180000000000e2
:0402190000000000e1
:04021a0000000000e0
:04021b0000000000df
:04021c0000000000de
:04021d0000000000dd
:04021e0000000000dc
:04021f0000000000db
:0402200000000000da
:0402210000000000d9
:0402220000000000d8
:0402230000000000d7
:0402240000000000d6
:0402250000000000d5
:0402260000000000d4
:0402270000000000d3
:0402280000000000d2
:0402290000000000d1
:04022a0000000000d0
:04022b0000000000cf
:04022c0000000000ce
:04022d0000000000cd
:04022e0000000000cc
:04022f0000000000cb
:0402300000000000ca
:0402310000000000c9
:0402320000000000c8
:0402330000000000c7
:0402340000000000c6
:0402350000000000c5
:0402360000000000c4
:0402370000000000c3
:0402380000000000c2
:0402390000000000c1
:04023a0000000000c0
:04023b0000000000bf
:04023c0000000000be
:04023d0000000000bd
:04023e0000000000bc
:04023f0000000000bb
:0402400000000000ba
:0402410000000000b9
:0402420000000000b8
:0402430000000000b7
:0402440000000000b6
:0402450000000000b5
:0402460000000000b4
:0402470000000000b3
:0402480000000000b2
:0402490000000000b1
:04024a0000000000b0
:04024b0000000000af
:04024c0000000000ae
:04024d0000000000ad
:04024e0000000000ac
:04024f0000000000ab
:0402500000000000aa
:0402510000000000a9
:0402520000000000a8
:0402530000000000a7
:0402540000000000a6
:0402550000000000a5
:0402560000000000a4
:0402570000000000a3
:0402580000000000a2
:0402590000000000a1
:04025a0000000000a0
:04025b00000000009f
:04025c00000000009e
:04025d00000000009d
:04025e00000000009c
:04025f00000000009b
:04026000000000009a
:040261000000000099
:040262000000000098
:040263000000000097
:040264000000000096
:040265000000000095
:040266000000000094
:040267000000000093
:040268000000000092
:040269000000000091
:04026a000000000090
:04026b00000000008f
:04026c00000000008e
:04026d00000000008d
:04026e00000000008c
:04026f00000000008b
:04027000000000008a
:040271000000000089
:040272000000000088
:040273000000000087
:040274000000000086
:040275000000000085
:040276000000000084
:040277000000000083
:040278000000000082
:040279000000000081
:04027a000000000080
:04027b00000000007f
:04027c00000000007e
:04027d00000000007d
:04027e00000000007c
:04027f00000000007b
:04028000000000007a
:040281000000000079
:040282000000000078
:040283000000000077
:040284000000000076
:040285000000000075
:040286000000000074
:040287000000000073
:040288000000000072
:040289000000000071
:04028a000000000070
:04028b00000000006f
:04028c00000000006e
:04028d00000000006d
:04028e00000000006c
:04028f00000000006b
:04029000000000006a
:040291000000000069
:040292000000000068
:040293000000000067
:040294000000000066
:040295000000000065
:040296000000000064
:040297000000000063
:040298000000000062
:040299000000000061
:04029a000000000060
:04029b00000000005f
:04029c00000000005e
:04029d00000000005d
:04029e00000000005c
:04029f00000000005b
:0402a000000000005a
:0402a1000000000059
:0402a2000000000058
:0402a3000000000057
:0402a4000000000056
:0402a5000000000055
:0402a6000000000054
:0402a7000000000053
:0402a8000000000052
:0402a9000000000051
:0402aa000000000050
:0402ab00000000004f
:0402ac00000000004e
:0402ad00000000004d
:0402ae00000000004c
:0402af00000000004b
:0402b000000000004a
:0402b1000000000049
:0402b2000000000048
:0402b3000000000047
:0402b4000000000046
:0402b5000000000045
:0402b6000000000044
:0402b7000000000043
:0402b8000000000042
:0402b9000000000041
:0402ba000000000040
:0402bb00000000003f
:0402bc00000000003e
:0402bd00000000003d
:0402be00000000003c
:0402bf00000000003b
:0402c000000000003a
:0402c1000000000039
:0402c2000000000038
:0402c3000000000037
:0402c4000000000036
:0402c5000000000035
:0402c6000000000034
:0402c7000000000033
:0402c8000000000032
:0402c9000000000031
:0402ca000000000030
:0402cb00000000002f
:0402cc00000000002e
:0402cd00000000002d
:0402ce00000000002c
:0402cf00000000002b
:0402d000000000002a
:0402d1000000000029
:0402d2000000000028
:0402d3000000000027
:0402d4000000000026
:0402d5000000000025
:0402d6000000000024
:0402d7000000000023
:0402d8000000000022
:0402d9000000000021
:0402da000000000020
:0402db00000000001f
:0402dc00000000001e
:0402dd00000000001d
:0402de00000000001c
:0402df00000000001b
:0402e000000000001a
:0402e1000000000019
:0402e2000000000018
:0402e3000000000017
:0402e4000000000016
:0402e5000000000015
:0402e6000000000014
:0402e7000000000013
:0402e8000000000012
:0402e9000000000011
:0402ea000000000010
:0402eb00000000000f
:0402ec00000000000e
:0402ed00000000000d
:0402ee00000000000c
:0402ef00000000000b
:0402f000000000000a
:0402f1000000000009
:0402f2000000000008
:0402f3000000000007
:0402f4000000000006
:0402f5000000000005
:0402f6000000000004
:0402f7000000000003
:0402f8000000000002
:0402f9000000000001
:0402fa000000000000
:0402fb0000000000ff
:0402fc0000000000fe
:0402fd0000000000fd
:0402fe0000000000fc
:0402ff0000000000fb
:0403000000000000f9
:0403010000000000f8
:0403020000000000f7
:0403030000000000f6
:0403040000000000f5
:0403050000000000f4
:0403060000000000f3
:0403070000000000f2
:0403080000000000f1
:0403090000000000f0
:04030a0000000000ef
:04030b0000000000ee
:04030c0000000000ed
:04030d0000000000ec
:04030e0000000000eb
:04030f0000000000ea
:0403100000000000e9
:0403110000000000e8
:0403120000000000e7
:0403130000000000e6
:0403140000000000e5
:0403150000000000e4
:0403160000000000e3
:0403170000000000e2
:0403180000000000e1
:0403190000000000e0
:04031a0000000000df
:04031b0000000000de
:04031c0000000000dd
:04031d0000000000dc
:04031e0000000000db
:04031f0000000000da
:0403200000000000d9
:0403210000000000d8
:0403220000000000d7
:0403230000000000d6
:0403240000000000d5
:0403250000000000d4
:0403260000000000d3
:0403270000000000d2
:0403280000000000d1
:0403290000000000d0
:04032a0000000000cf
:04032b0000000000ce
:04032c0000000000cd
:04032d0000000000cc
:04032e0000000000cb
:04032f0000000000ca
:0403300000000000c9
:0403310000000000c8
:0403320000000000c7
:0403330000000000c6
:0403340000000000c5
:0403350000000000c4
:0403360000000000c3
:0403370000000000c2
:0403380000000000c1
:0403390000000000c0
:04033a0000000000bf
:04033b0000000000be
:04033c0000000000bd
:04033d0000000000bc
:04033e0000000000bb
:04033f0000000000ba
:0403400000000000b9
:0403410000000000b8
:0403420000000000b7
:0403430000000000b6
:0403440000000000b5
:0403450000000000b4
:0403460000000000b3
:0403470000000000b2
:0403480000000000b1
:0403490000000000b0
:04034a0000000000af
:04034b0000000000ae
:04034c0000000000ad
:04034d0000000000ac
:04034e0000000000ab
:04034f0000000000aa
:0403500000000000a9
:0403510000000000a8
:0403520000000000a7
:0403530000000000a6
:0403540000000000a5
:0403550000000000a4
:0403560000000000a3
:0403570000000000a2
:0403580000000000a1
:0403590000000000a0
:04035a00000000009f
:04035b00000000009e
:04035c00000000009d
:04035d00000000009c
:04035e00000000009b
:04035f00000000009a
:040360000000000099
:040361000000000098
:040362000000000097
:040363000000000096
:040364000000000095
:040365000000000094
:040366000000000093
:040367000000000092
:040368000000000091
:040369000000000090
:04036a00000000008f
:04036b00000000008e
:04036c00000000008d
:04036d00000000008c
:04036e00000000008b
:04036f00000000008a
:040370000000000089
:040371000000000088
:040372000000000087
:040373000000000086
:040374000000000085
:040375000000000084
:040376000000000083
:040377000000000082
:040378000000000081
:040379000000000080
:04037a00000000007f
:04037b00000000007e
:04037c00000000007d
:04037d00000000007c
:04037e00000000007b
:04037f00000000007a
:040380000000000079
:040381000000000078
:040382000000000077
:040383000000000076
:040384000000000075
:040385000000000074
:040386000000000073
:040387000000000072
:040388000000000071
:040389000000000070
:04038a00000000006f
:04038b00000000006e
:04038c00000000006d
:04038d00000000006c
:04038e00000000006b
:04038f00000000006a
:040390000000000069
:040391000000000068
:040392000000000067
:040393000000000066
:040394000000000065
:040395000000000064
:040396000000000063
:040397000000000062
:040398000000000061
:040399000000000060
:04039a00000000005f
:04039b00000000005e
:04039c00000000005d
:04039d00000000005c
:04039e00000000005b
:04039f00000000005a
:0403a0000000000059
:0403a1000000000058
:0403a2000000000057
:0403a3000000000056
:0403a4000000000055
:0403a5000000000054
:0403a6000000000053
:0403a7000000000052
:0403a8000000000051
:0403a9000000000050
:0403aa00000000004f
:0403ab00000000004e
:0403ac00000000004d
:0403ad00000000004c
:0403ae00000000004b
:0403af00000000004a
:0403b0000000000049
:0403b1000000000048
:0403b2000000000047
:0403b3000000000046
:0403b4000000000045
:0403b5000000000044
:0403b6000000000043
:0403b7000000000042
:0403b8000000000041
:0403b9000000000040
:0403ba00000000003f
:0403bb00000000003e
:0403bc00000000003d
:0403bd00000000003c
:0403be00000000003b
:0403bf00000000003a
:0403c0000000000039
:0403c1000000000038
:0403c2000000000037
:0403c3000000000036
:0403c4000000000035
:0403c5000000000034
:0403c6000000000033
:0403c7000000000032
:0403c8000000000031
:0403c9000000000030
:0403ca00000000002f
:0403cb00000000002e
:0403cc00000000002d
:0403cd00000000002c
:0403ce00000000002b
:0403cf00000000002a
:0403d0000000000029
:0403d1000000000028
:0403d2000000000027
:0403d3000000000026
:0403d4000000000025
:0403d5000000000024
:0403d6000000000023
:0403d7000000000022
:0403d8000000000021
:0403d9000000000020
:0403da00000000001f
:0403db00000000001e
:0403dc00000000001d
:0403dd00000000001c
:0403de00000000001b
:0403df00000000001a
:0403e0000000000019
:0403e1000000000018
:0403e2000000000017
:0403e3000000000016
:0403e4000000000015
:0403e5000000000014
:0403e6000000000013
:0403e7000000000012
:0403e8000000000011
:0403e9000000000010
:0403ea00000000000f
:0403eb00000000000e
:0403ec00000000000d
:0403ed00000000000c
:0403ee00000000000b
:0403ef00000000000a
:0403f0000000000009
:0403f1000000000008
:0403f2000000000007
:0403f3000000000006
:0403f4000000000005
:0403f5000000000004
:0403f6000000000003
:0403f7000000000002
:0403f8000000000001
:0403f9000000000000
:0403fa0000000000ff
:0403fb0000000000fe
:0403fc0000000000fd
:0403fd0000000000fc
:0403fe0000000000fb
:0403ff0000000000fa
:0404000000000000f8
:0404010000000000f7
:0404020000000000f6
:0404030000000000f5
:0404040000000000f4
:0404050000000000f3
:0404060000000000f2
:0404070000000000f1
:0404080000000000f0
:0404090000000000ef
:04040a0000000000ee
:04040b0000000000ed
:04040c0000000000ec
:04040d0000000000eb
:04040e0000000000ea
:04040f0000000000e9
:0404100000000000e8
:0404110000000000e7
:0404120000000000e6
:0404130000000000e5
:0404140000000000e4
:0404150000000000e3
:0404160000000000e2
:0404170000000000e1
:0404180000000000e0
:0404190000000000df
:04041a0000000000de
:04041b0000000000dd
:04041c0000000000dc
:04041d0000000000db
:04041e0000000000da
:04041f0000000000d9
:0404200000000000d8
:0404210000000000d7
:0404220000000000d6
:0404230000000000d5
:0404240000000000d4
:0404250000000000d3
:0404260000000000d2
:0404270000000000d1
:0404280000000000d0
:0404290000000000cf
:04042a0000000000ce
:04042b0000000000cd
:04042c0000000000cc
:04042d0000000000cb
:04042e0000000000ca
:04042f0000000000c9
:0404300000000000c8
:0404310000000000c7
:0404320000000000c6
:0404330000000000c5
:0404340000000000c4
:0404350000000000c3
:0404360000000000c2
:0404370000000000c1
:0404380000000000c0
:0404390000000000bf
:04043a0000000000be
:04043b0000000000bd
:04043c0000000000bc
:04043d0000000000bb
:04043e0000000000ba
:04043f0000000000b9
:0404400000000000b8
:0404410000000000b7
:0404420000000000b6
:0404430000000000b5
:0404440000000000b4
:0404450000000000b3
:0404460000000000b2
:0404470000000000b1
:0404480000000000b0
:0404490000000000af
:04044a0000000000ae
:04044b0000000000ad
:04044c0000000000ac
:04044d0000000000ab
:04044e0000000000aa
:04044f0000000000a9
:0404500000000000a8
:0404510000000000a7
:0404520000000000a6
:0404530000000000a5
:0404540000000000a4
:0404550000000000a3
:0404560000000000a2
:0404570000000000a1
:0404580000000000a0
:04045900000000009f
:04045a00000000009e
:04045b00000000009d
:04045c00000000009c
:04045d00000000009b
:04045e00000000009a
:04045f000000000099
:040460000000000098
:040461000000000097
:040462000000000096
:040463000000000095
:040464000000000094
:040465000000000093
:040466000000000092
:040467000000000091
:040468000000000090
:04046900000000008f
:04046a00000000008e
:04046b00000000008d
:04046c00000000008c
:04046d00000000008b
:04046e00000000008a
:04046f000000000089
:040470000000000088
:040471000000000087
:040472000000000086
:040473000000000085
:040474000000000084
:040475000000000083
:040476000000000082
:040477000000000081
:040478000000000080
:04047900000000007f
:04047a00000000007e
:04047b00000000007d
:04047c00000000007c
:04047d00000000007b
:04047e00000000007a
:04047f000000000079
:040480000000000078
:040481000000000077
:040482000000000076
:040483000000000075
:040484000000000074
:040485000000000073
:040486000000000072
:040487000000000071
:040488000000000070
:04048900000000006f
:04048a00000000006e
:04048b00000000006d
:04048c00000000006c
:04048d00000000006b
:04048e00000000006a
:04048f000000000069
:040490000000000068
:040491000000000067
:040492000000000066
:040493000000000065
:040494000000000064
:040495000000000063
:040496000000000062
:040497000000000061
:040498000000000060
:04049900000000005f
:04049a00000000005e
:04049b00000000005d
:04049c00000000005c
:04049d00000000005b
:04049e00000000005a
:04049f000000000059
:0404a0000000000058
:0404a1000000000057
:0404a2000000000056
:0404a3000000000055
:0404a4000000000054
:0404a5000000000053
:0404a6000000000052
:0404a7000000000051
:0404a8000000000050
:0404a900000000004f
:0404aa00000000004e
:0404ab00000000004d
:0404ac00000000004c
:0404ad00000000004b
:0404ae00000000004a
:0404af000000000049
:0404b0000000000048
:0404b1000000000047
:0404b2000000000046
:0404b3000000000045
:0404b4000000000044
:0404b5000000000043
:0404b6000000000042
:0404b7000000000041
:0404b8000000000040
:0404b900000000003f
:0404ba00000000003e
:0404bb00000000003d
:0404bc00000000003c
:0404bd00000000003b
:0404be00000000003a
:0404bf000000000039
:0404c0000000000038
:0404c1000000000037
:0404c2000000000036
:0404c3000000000035
:0404c4000000000034
:0404c5000000000033
:0404c6000000000032
:0404c7000000000031
:0404c8000000000030
:0404c900000000002f
:0404ca00000000002e
:0404cb00000000002d
:0404cc00000000002c
:0404cd00000000002b
:0404ce00000000002a
:0404cf000000000029
:0404d0000000000028
:0404d1000000000027
:0404d2000000000026
:0404d3000000000025
:0404d4000000000024
:0404d5000000000023
:0404d6000000000022
:0404d7000000000021
:0404d8000000000020
:0404d900000000001f
:0404da00000000001e
:0404db00000000001d
:0404dc00000000001c
:0404dd00000000001b
:0404de00000000001a
:0404df000000000019
:0404e0000000000018
:0404e1000000000017
:0404e2000000000016
:0404e3000000000015
:0404e4000000000014
:0404e5000000000013
:0404e6000000000012
:0404e7000000000011
:0404e8000000000010
:0404e900000000000f
:0404ea00000000000e
:0404eb00000000000d
:0404ec00000000000c
:0404ed00000000000b
:0404ee00000000000a
:0404ef000000000009
:0404f0000000000008
:0404f1000000000007
:0404f2000000000006
:0404f3000000000005
:0404f4000000000004
:0404f5000000000003
:0404f6000000000002
:0404f7000000000001
:0404f8000000000000
:0404f90000000000ff
:0404fa0000000000fe
:0404fb0000000000fd
:0404fc0000000000fc
:0404fd0000000000fb
:0404fe0000000000fa
:0404ff0000000000f9
:0405000000000000f7
:0405010000000000f6
:0405020000000000f5
:0405030000000000f4
:0405040000000000f3
:0405050000000000f2
:0405060000000000f1
:0405070000000000f0
:0405080000000000ef
:0405090000000000ee
:04050a0000000000ed
:04050b0000000000ec
:04050c0000000000eb
:04050d0000000000ea
:04050e0000000000e9
:04050f0000000000e8
:0405100000000000e7
:0405110000000000e6
:0405120000000000e5
:0405130000000000e4
:0405140000000000e3
:0405150000000000e2
:0405160000000000e1
:0405170000000000e0
:0405180000000000df
:0405190000000000de
:04051a0000000000dd
:04051b0000000000dc
:04051c0000000000db
:04051d0000000000da
:04051e0000000000d9
:04051f0000000000d8
:0405200000000000d7
:0405210000000000d6
:0405220000000000d5
:0405230000000000d4
:0405240000000000d3
:0405250000000000d2
:0405260000000000d1
:0405270000000000d0
:0405280000000000cf
:0405290000000000ce
:04052a0000000000cd
:04052b0000000000cc
:04052c0000000000cb
:04052d0000000000ca
:04052e0000000000c9
:04052f0000000000c8
:0405300000000000c7
:0405310000000000c6
:0405320000000000c5
:0405330000000000c4
:0405340000000000c3
:0405350000000000c2
:0405360000000000c1
:0405370000000000c0
:0405380000000000bf
:0405390000000000be
:04053a0000000000bd
:04053b0000000000bc
:04053c0000000000bb
:04053d0000000000ba
:04053e0000000000b9
:04053f0000000000b8
:0405400000000000b7
:0405410000000000b6
:0405420000000000b5
:0405430000000000b4
:0405440000000000b3
:0405450000000000b2
:0405460000000000b1
:0405470000000000b0
:0405480000000000af
:0405490000000000ae
:04054a0000000000ad
:04054b0000000000ac
:04054c0000000000ab
:04054d0000000000aa
:04054e0000000000a9
:04054f0000000000a8
:0405500000000000a7
:0405510000000000a6
:0405520000000000a5
:0405530000000000a4
:0405540000000000a3
:0405550000000000a2
:0405560000000000a1
:0405570000000000a0
:04055800000000009f
:04055900000000009e
:04055a00000000009d
:04055b00000000009c
:04055c00000000009b
:04055d00000000009a
:04055e000000000099
:04055f000000000098
:040560000000000097
:040561000000000096
:040562000000000095
:040563000000000094
:040564000000000093
:040565000000000092
:040566000000000091
:040567000000000090
:04056800000000008f
:04056900000000008e
:04056a00000000008d
:04056b00000000008c
:04056c00000000008b
:04056d00000000008a
:04056e000000000089
:04056f000000000088
:040570000000000087
:040571000000000086
:040572000000000085
:040573000000000084
:040574000000000083
:040575000000000082
:040576000000000081
:040577000000000080
:04057800000000007f
:04057900000000007e
:04057a00000000007d
:04057b00000000007c
:04057c00000000007b
:04057d00000000007a
:04057e000000000079
:04057f000000000078
:040580000000000077
:040581000000000076
:040582000000000075
:040583000000000074
:040584000000000073
:040585000000000072
:040586000000000071
:040587000000000070
:04058800000000006f
:04058900000000006e
:04058a00000000006d
:04058b00000000006c
:04058c00000000006b
:04058d00000000006a
:04058e000000000069
:04058f000000000068
:040590000000000067
:040591000000000066
:040592000000000065
:040593000000000064
:040594000000000063
:040595000000000062
:040596000000000061
:040597000000000060
:04059800000000005f
:04059900000000005e
:04059a00000000005d
:04059b00000000005c
:04059c00000000005b
:04059d00000000005a
:04059e000000000059
:04059f000000000058
:0405a0000000000057
:0405a1000000000056
:0405a2000000000055
:0405a3000000000054
:0405a4000000000053
:0405a5000000000052
:0405a6000000000051
:0405a7000000000050
:0405a800000000004f
:0405a900000000004e
:0405aa00000000004d
:0405ab00000000004c
:0405ac00000000004b
:0405ad00000000004a
:0405ae000000000049
:0405af000000000048
:0405b0000000000047
:0405b1000000000046
:0405b2000000000045
:0405b3000000000044
:0405b4000000000043
:0405b5000000000042
:0405b6000000000041
:0405b7000000000040
:0405b800000000003f
:0405b900000000003e
:0405ba00000000003d
:0405bb00000000003c
:0405bc00000000003b
:0405bd00000000003a
:0405be000000000039
:0405bf000000000038
:0405c0000000000037
:0405c1000000000036
:0405c2000000000035
:0405c3000000000034
:0405c4000000000033
:0405c5000000000032
:0405c6000000000031
:0405c7000000000030
:0405c800000000002f
:0405c900000000002e
:0405ca00000000002d
:0405cb00000000002c
:0405cc00000000002b
:0405cd00000000002a
:0405ce000000000029
:0405cf000000000028
:0405d0000000000027
:0405d1000000000026
:0405d2000000000025
:0405d3000000000024
:0405d4000000000023
:0405d5000000000022
:0405d6000000000021
:0405d7000000000020
:0405d800000000001f
:0405d900000000001e
:0405da00000000001d
:0405db00000000001c
:0405dc00000000001b
:0405dd00000000001a
:0405de000000000019
:0405df000000000018
:0405e0000000000017
:0405e1000000000016
:0405e2000000000015
:0405e3000000000014
:0405e4000000000013
:0405e5000000000012
:0405e6000000000011
:0405e7000000000010
:0405e800000000000f
:0405e900000000000e
:0405ea00000000000d
:0405eb00000000000c
:0405ec00000000000b
:0405ed00000000000a
:0405ee000000000009
:0405ef000000000008
:0405f0000000000007
:0405f1000000000006
:0405f2000000000005
:0405f3000000000004
:0405f4000000000003
:0405f5000000000002
:0405f6000000000001
:0405f7000000000000
:0405f80000000000ff
:0405f90000000000fe
:0405fa0000000000fd
:0405fb0000000000fc
:0405fc0000000000fb
:0405fd0000000000fa
:0405fe0000000000f9
:0405ff0000000000f8
:0406000000000000f6
:0406010000000000f5
:0406020000000000f4
:0406030000000000f3
:0406040000000000f2
:0406050000000000f1
:0406060000000000f0
:0406070000000000ef
:0406080000000000ee
:0406090000000000ed
:04060a0000000000ec
:04060b0000000000eb
:04060c0000000000ea
:04060d0000000000e9
:04060e0000000000e8
:04060f0000000000e7
:0406100000000000e6
:0406110000000000e5
:0406120000000000e4
:0406130000000000e3
:0406140000000000e2
:0406150000000000e1
:0406160000000000e0
:0406170000000000df
:0406180000000000de
:0406190000000000dd
:04061a0000000000dc
:04061b0000000000db
:04061c0000000000da
:04061d0000000000d9
:04061e0000000000d8
:04061f0000000000d7
:0406200000000000d6
:0406210000000000d5
:0406220000000000d4
:0406230000000000d3
:0406240000000000d2
:0406250000000000d1
:0406260000000000d0
:0406270000000000cf
:0406280000000000ce
:0406290000000000cd
:04062a0000000000cc
:04062b0000000000cb
:04062c0000000000ca
:04062d0000000000c9
:04062e0000000000c8
:04062f0000000000c7
:0406300000000000c6
:0406310000000000c5
:0406320000000000c4
:0406330000000000c3
:0406340000000000c2
:0406350000000000c1
:0406360000000000c0
:0406370000000000bf
:0406380000000000be
:0406390000000000bd
:04063a0000000000bc
:04063b0000000000bb
:04063c0000000000ba
:04063d0000000000b9
:04063e0000000000b8
:04063f0000000000b7
:0406400000000000b6
:0406410000000000b5
:0406420000000000b4
:0406430000000000b3
:0406440000000000b2
:0406450000000000b1
:0406460000000000b0
:0406470000000000af
:0406480000000000ae
:0406490000000000ad
:04064a0000000000ac
:04064b0000000000ab
:04064c0000000000aa
:04064d0000000000a9
:04064e0000000000a8
:04064f0000000000a7
:0406500000000000a6
:0406510000000000a5
:0406520000000000a4
:0406530000000000a3
:0406540000000000a2
:0406550000000000a1
:0406560000000000a0
:04065700000000009f
:04065800000000009e
:04065900000000009d
:04065a00000000009c
:04065b00000000009b
:04065c00000000009a
:04065d000000000099
:04065e000000000098
:04065f000000000097
:040660000000000096
:040661000000000095
:040662000000000094
:040663000000000093
:040664000000000092
:040665000000000091
:040666000000000090
:04066700000000008f
:04066800000000008e
:04066900000000008d
:04066a00000000008c
:04066b00000000008b
:04066c00000000008a
:04066d000000000089
:04066e000000000088
:04066f000000000087
:040670000000000086
:040671000000000085
:040672000000000084
:040673000000000083
:040674000000000082
:040675000000000081
:040676000000000080
:04067700000000007f
:04067800000000007e
:04067900000000007d
:04067a00000000007c
:04067b00000000007b
:04067c00000000007a
:04067d000000000079
:04067e000000000078
:04067f000000000077
:040680000000000076
:040681000000000075
:040682000000000074
:040683000000000073
:040684000000000072
:040685000000000071
:040686000000000070
:04068700000000006f
:04068800000000006e
:04068900000000006d
:04068a00000000006c
:04068b00000000006b
:04068c00000000006a
:04068d000000000069
:04068e000000000068
:04068f000000000067
:040690000000000066
:040691000000000065
:040692000000000064
:040693000000000063
:040694000000000062
:040695000000000061
:040696000000000060
:04069700000000005f
:04069800000000005e
:04069900000000005d
:04069a00000000005c
:04069b00000000005b
:04069c00000000005a
:04069d000000000059
:04069e000000000058
:04069f000000000057
:0406a0000000000056
:0406a1000000000055
:0406a2000000000054
:0406a3000000000053
:0406a4000000000052
:0406a5000000000051
:0406a6000000000050
:0406a700000000004f
:0406a800000000004e
:0406a900000000004d
:0406aa00000000004c
:0406ab00000000004b
:0406ac00000000004a
:0406ad000000000049
:0406ae000000000048
:0406af000000000047
:0406b0000000000046
:0406b1000000000045
:0406b2000000000044
:0406b3000000000043
:0406b4000000000042
:0406b5000000000041
:0406b6000000000040
:0406b700000000003f
:0406b800000000003e
:0406b900000000003d
:0406ba00000000003c
:0406bb00000000003b
:0406bc00000000003a
:0406bd000000000039
:0406be000000000038
:0406bf000000000037
:0406c0000000000036
:0406c1000000000035
:0406c2000000000034
:0406c3000000000033
:0406c4000000000032
:0406c5000000000031
:0406c6000000000030
:0406c700000000002f
:0406c800000000002e
:0406c900000000002d
:0406ca00000000002c
:0406cb00000000002b
:0406cc00000000002a
:0406cd000000000029
:0406ce000000000028
:0406cf000000000027
:0406d0000000000026
:0406d1000000000025
:0406d2000000000024
:0406d3000000000023
:0406d4000000000022
:0406d5000000000021
:0406d6000000000020
:0406d700000000001f
:0406d800000000001e
:0406d900000000001d
:0406da00000000001c
:0406db00000000001b
:0406dc00000000001a
:0406dd000000000019
:0406de000000000018
:0406df000000000017
:0406e0000000000016
:0406e1000000000015
:0406e2000000000014
:0406e3000000000013
:0406e4000000000012
:0406e5000000000011
:0406e6000000000010
:0406e700000000000f
:0406e800000000000e
:0406e900000000000d
:0406ea00000000000c
:0406eb00000000000b
:0406ec00000000000a
:0406ed000000000009
:0406ee000000000008
:0406ef000000000007
:0406f0000000000006
:0406f1000000000005
:0406f2000000000004
:0406f3000000000003
:0406f4000000000002
:0406f5000000000001
:0406f6000000000000
:0406f70000000000ff
:0406f80000000000fe
:0406f90000000000fd
:0406fa0000000000fc
:0406fb0000000000fb
:0406fc0000000000fa
:0406fd0000000000f9
:0406fe0000000000f8
:0406ff0000000000f7
:0407000000000000f5
:0407010000000000f4
:0407020000000000f3
:0407030000000000f2
:0407040000000000f1
:0407050000000000f0
:0407060000000000ef
:0407070000000000ee
:0407080000000000ed
:0407090000000000ec
:04070a0000000000eb
:04070b0000000000ea
:04070c0000000000e9
:04070d0000000000e8
:04070e0000000000e7
:04070f0000000000e6
:0407100000000000e5
:0407110000000000e4
:0407120000000000e3
:0407130000000000e2
:0407140000000000e1
:0407150000000000e0
:0407160000000000df
:0407170000000000de
:0407180000000000dd
:0407190000000000dc
:04071a0000000000db
:04071b0000000000da
:04071c0000000000d9
:04071d0000000000d8
:04071e0000000000d7
:04071f0000000000d6
:0407200000000000d5
:0407210000000000d4
:0407220000000000d3
:0407230000000000d2
:0407240000000000d1
:0407250000000000d0
:0407260000000000cf
:0407270000000000ce
:0407280000000000cd
:0407290000000000cc
:04072a0000000000cb
:04072b0000000000ca
:04072c0000000000c9
:04072d0000000000c8
:04072e0000000000c7
:04072f0000000000c6
:0407300000000000c5
:0407310000000000c4
:0407320000000000c3
:0407330000000000c2
:0407340000000000c1
:0407350000000000c0
:0407360000000000bf
:0407370000000000be
:0407380000000000bd
:0407390000000000bc
:04073a0000000000bb
:04073b0000000000ba
:04073c0000000000b9
:04073d0000000000b8
:04073e0000000000b7
:04073f0000000000b6
:0407400000000000b5
:0407410000000000b4
:0407420000000000b3
:0407430000000000b2
:0407440000000000b1
:0407450000000000b0
:0407460000000000af
:0407470000000000ae
:0407480000000000ad
:0407490000000000ac
:04074a0000000000ab
:04074b0000000000aa
:04074c0000000000a9
:04074d0000000000a8
:04074e0000000000a7
:04074f0000000000a6
:0407500000000000a5
:0407510000000000a4
:0407520000000000a3
:0407530000000000a2
:0407540000000000a1
:0407550000000000a0
:04075600000000009f
:04075700000000009e
:04075800000000009d
:04075900000000009c
:04075a00000000009b
:04075b00000000009a
:04075c000000000099
:04075d000000000098
:04075e000000000097
:04075f000000000096
:040760000000000095
:040761000000000094
:040762000000000093
:040763000000000092
:040764000000000091
:040765000000000090
:04076600000000008f
:04076700000000008e
:04076800000000008d
:04076900000000008c
:04076a00000000008b
:04076b00000000008a
:04076c000000000089
:04076d000000000088
:04076e000000000087
:04076f000000000086
:040770000000000085
:040771000000000084
:040772000000000083
:040773000000000082
:040774000000000081
:040775000000000080
:04077600000000007f
:04077700000000007e
:04077800000000007d
:04077900000000007c
:04077a00000000007b
:04077b00000000007a
:04077c000000000079
:04077d000000000078
:04077e000000000077
:04077f000000000076
:040780000000000075
:040781000000000074
:040782000000000073
:040783000000000072
:040784000000000071
:040785000000000070
:04078600000000006f
:04078700000000006e
:04078800000000006d
:04078900000000006c
:04078a00000000006b
:04078b00000000006a
:04078c000000000069
:04078d000000000068
:04078e000000000067
:04078f000000000066
:040790000000000065
:040791000000000064
:040792000000000063
:040793000000000062
:040794000000000061
:040795000000000060
:04079600000000005f
:04079700000000005e
:04079800000000005d
:04079900000000005c
:04079a00000000005b
:04079b00000000005a
:04079c000000000059
:04079d000000000058
:04079e000000000057
:04079f000000000056
:0407a0000000000055
:0407a1000000000054
:0407a2000000000053
:0407a3000000000052
:0407a4000000000051
:0407a5000000000050
:0407a600000000004f
:0407a700000000004e
:0407a800000000004d
:0407a900000000004c
:0407aa00000000004b
:0407ab00000000004a
:0407ac000000000049
:0407ad000000000048
:0407ae000000000047
:0407af000000000046
:0407b0000000000045
:0407b1000000000044
:0407b2000000000043
:0407b3000000000042
:0407b4000000000041
:0407b5000000000040
:0407b600000000003f
:0407b700000000003e
:0407b800000000003d
:0407b900000000003c
:0407ba00000000003b
:0407bb00000000003a
:0407bc000000000039
:0407bd000000000038
:0407be000000000037
:0407bf000000000036
:0407c0000000000035
:0407c1000000000034
:0407c2000000000033
:0407c3000000000032
:0407c4000000000031
:0407c5000000000030
:0407c600000000002f
:0407c700000000002e
:0407c800000000002d
:0407c900000000002c
:0407ca00000000002b
:0407cb00000000002a
:0407cc000000000029
:0407cd000000000028
:0407ce000000000027
:0407cf000000000026
:0407d0000000000025
:0407d1000000000024
:0407d2000000000023
:0407d3000000000022
:0407d4000000000021
:0407d5000000000020
:0407d600000000001f
:0407d700000000001e
:0407d800000000001d
:0407d900000000001c
:0407da00000000001b
:0407db00000000001a
:0407dc000000000019
:0407dd000000000018
:0407de000000000017
:0407df000000000016
:0407e0000000000015
:0407e1000000000014
:0407e2000000000013
:0407e3000000000012
:0407e4000000000011
:0407e5000000000010
:0407e600000000000f
:0407e700000000000e
:0407e800000000000d
:0407e900000000000c
:0407ea00000000000b
:0407eb00000000000a
:0407ec000000000009
:0407ed000000000008
:0407ee000000000007
:0407ef000000000006
:0407f0000000000005
:0407f1000000000004
:0407f2000000000003
:0407f3000000000002
:0407f4000000000001
:0407f5000000000000
:0407f60000000000ff
:0407f70000000000fe
:0407f80000000000fd
:0407f90000000000fc
:0407fa0000000000fb
:0407fb0000000000fa
:0407fc0000000000f9
:0407fd0000000000f8
:0407fe0000000000f7
:0407ff0000000000f6
:0408000000000000f4
:0408010000000000f3
:0408020000000000f2
:0408030000000000f1
:0408040000000000f0
:0408050000000000ef
:0408060000000000ee
:0408070000000000ed
:0408080000000000ec
:0408090000000000eb
:04080a0000000000ea
:04080b0000000000e9
:04080c0000000000e8
:04080d0000000000e7
:04080e0000000000e6
:04080f0000000000e5
:0408100000000000e4
:0408110000000000e3
:0408120000000000e2
:0408130000000000e1
:0408140000000000e0
:0408150000000000df
:0408160000000000de
:0408170000000000dd
:0408180000000000dc
:0408190000000000db
:04081a0000000000da
:04081b0000000000d9
:04081c0000000000d8
:04081d0000000000d7
:04081e0000000000d6
:04081f0000000000d5
:0408200000000000d4
:0408210000000000d3
:0408220000000000d2
:0408230000000000d1
:0408240000000000d0
:0408250000000000cf
:0408260000000000ce
:0408270000000000cd
:0408280000000000cc
:0408290000000000cb
:04082a0000000000ca
:04082b0000000000c9
:04082c0000000000c8
:04082d0000000000c7
:04082e0000000000c6
:04082f0000000000c5
:0408300000000000c4
:0408310000000000c3
:0408320000000000c2
:0408330000000000c1
:0408340000000000c0
:0408350000000000bf
:0408360000000000be
:0408370000000000bd
:0408380000000000bc
:0408390000000000bb
:04083a0000000000ba
:04083b0000000000b9
:04083c0000000000b8
:04083d0000000000b7
:04083e0000000000b6
:04083f0000000000b5
:0408400000000000b4
:0408410000000000b3
:0408420000000000b2
:0408430000000000b1
:0408440000000000b0
:0408450000000000af
:0408460000000000ae
:0408470000000000ad
:0408480000000000ac
:0408490000000000ab
:04084a0000000000aa
:04084b0000000000a9
:04084c0000000000a8
:04084d0000000000a7
:04084e0000000000a6
:04084f0000000000a5
:0408500000000000a4
:0408510000000000a3
:040852000003c000df
:040853000003c000de
:040854000003c000dd
:040855000003c000dc
:040856000003c000db
:040857000003c000da
:040858000003c000d9
:040859000003c000d8
:04085a000003c000d7
:04085b000003c000d6
:04085c000003c000d5
:04085d000003c000d4
:04085e000003c000d3
:04085f000003c000d2
:040860000003c000d1
:040861000003c000d0
:040862000003c000cf
:040863000003c000ce
:040864000003c000cd
:040865000003c000cc
:04086600000180000d
:04086700000000008d
:04086800000000008c
:04086900000000008b
:04086a000003c000c7
:04086b000003c000c6
:04086c000003c000c5
:04086d000003c000c4
:04086e000000000086
:04086f000000000085
:040870000000000084
:040871000000000083
:040872000000000082
:040873000000000081
:040874000000000080
:04087500000000007f
:04087600000000007e
:04087700000000007d
:04087800000000007c
:04087900000000007b
:04087a00000000007a
:04087b000000000079
:04087c000000000078
:04087d000000000077
:04087e000000000076
:04087f000000000075
:040880000000000074
:040881000000000073
:040882000000000072
:040883000000000071
:040884000000000070
:04088500000000006f
:04088600000000006e
:04088700000000006d
:04088800000000006c
:04088900000000006b
:04088a00000000006a
:04088b000000000069
:04088c000000000068
:04088d000000000067
:04088e000000000066
:04088f000000000065
:040890000000000064
:040891000000000063
:04089200003c3c00ea
:04089300003c3c00e9
:04089400003c3c00e8
:04089500003c3c00e7
:04089600003c3c00e6
:04089700003c3c00e5
:04089800003c3c00e4
:04089900003c3c00e3
:04089a00003c3c00e2
:04089b00003c3c00e1
:04089c00003c3c00e0
:04089d00003c3c00df
:04089e000000000056
:04089f000000000055
:0408a0000000000054
:0408a1000000000053
:0408a2000000000052
:0408a3000000000051
:0408a4000000000050
:0408a500000000004f
:0408a600000000004e
:0408a700000000004d
:0408a800000000004c
:0408a900000000004b
:0408aa00000000004a
:0408ab000000000049
:0408ac000000000048
:0408ad000000000047
:0408ae000000000046
:0408af000000000045
:0408b0000000000044
:0408b1000000000043
:0408b2000000000042
:0408b3000000000041
:0408b4000000000040
:0408b500000000003f
:0408b600000000003e
:0408b700000000003d
:0408b800000000003c
:0408b900000000003b
:0408ba00000000003a
:0408bb000000000039
:0408bc000000000038
:0408bd000000000037
:0408be000000000036
:0408bf000000000035
:0408c0000000000034
:0408c1000000000033
:0408c2000000000032
:0408c3000000000031
:0408c4000000000030
:0408c500000000002f
:0408c600000000002e
:0408c700000000002d
:0408c800000000002c
:0408c900000000002b
:0408ca00000000002a
:0408cb000000000029
:0408cc000000000028
:0408cd000000000027
:0408ce000000000026
:0408cf000000000025
:0408d0000000000024
:0408d1000000000023
:0408d200003c3c00aa
:0408d300003c3c00a9
:0408d400003c3c00a8
:0408d500003c3c00a7
:0408d60003ffffc05d
:0408d70003ffffc05c
:0408d80003ffffc05b
:0408d90003ffffc05a
:0408da00003c3c00a2
:0408db00003c3c00a1
:0408dc00003c3c00a0
:0408dd00003c3c009f
:0408de00003c3c009e
:0408df00003c3c009d
:0408e000003c3c009c
:0408e100003c3c009b
:0408e20003ffffc051
:0408e30003ffffc050
:0408e40003ffffc04f
:0408e50003ffffc04e
:0408e600003c3c0096
:0408e700003c3c0095
:0408e800003c3c0094
:0408e900003c3c0093
:0408ea00000000000a
:0408eb000000000009
:0408ec000000000008
:0408ed000000000007
:0408ee000000000006
:0408ef000000000005
:0408f0000000000004
:0408f1000000000003
:0408f2000000000002
:0408f3000000000001
:0408f4000000000000
:0408f50000000000ff
:0408f60000000000fe
:0408f70000000000fd
:0408f80000000000fc
:0408f90000000000fb
:0408fa0000000000fa
:0408fb0000000000f9
:0408fc0000000000f8
:0408fd0000000000f7
:0408fe0000000000f6
:0408ff0000000000f5
:0409000000000000f3
:0409010000000000f2
:0409020000000000f1
:0409030000000000f0
:0409040000000000ef
:0409050000000000ee
:0409060000000000ed
:0409070000000000ec
:0409080000000000eb
:0409090000000000ea
:04090a0000000000e9
:04090b0000000000e8
:04090c0000000000e7
:04090d0000000000e6
:04090e0000000000e5
:04090f0000000000e4
:0409100000000000e3
:0409110000000000e2
:040912000003c0001e
:040913000003c0001d
:040914000003c0001c
:040915000003c0001b
:0409160000ffffc01f
:0409170001ffffc01d
:0409180001ffffc01c
:0409190003ffffc019
:04091a0003f3c00023
:04091b0003e3c00032
:04091c0003e3c00031
:04091d0003f3c00020
:04091e0003fffe00d5
:04091f0003ffff8053
:0409200001ffff8054
:0409210000ffffc014
:040922000003cfc03f
:040923000003c7c046
:040924000003c7c045
:040925000003cfc03c
:0409260003ffffc00c
:0409270003ffff804b
:0409280003ffff804a
:0409290003ffff00c9
:04092a000003c00006
:04092b000003c00005
:04092c000003c00004
:04092d000003c00003
:04092e0000000000c5
:04092f0000000000c4
:0409300000000000c3
:0409310000000000c2
:0409320000000000c1
:0409330000000000c0
:0409340000000000bf
:0409350000000000be
:0409360000000000bd
:0409370000000000bc
:0409380000000000bb
:0409390000000000ba
:04093a0000000000b9
:04093b0000000000b8
:04093c0000000000b7
:04093d0000000000b6
:04093e0000000000b5
:04093f0000000000b4
:0409400000000000b3
:0409410000000000b2
:0409420000000000b1
:0409430000000000b0
:0409440000000000af
:0409450000000000ae
:0409460000000000ad
:0409470000000000ac
:0409480000000000ab
:0409490000000000aa
:04094a0000000000a9
:04094b0000000000a8
:04094c0000000000a7
:04094d0000000000a6
:04094e0000000000a5
:04094f0000000000a4
:0409500000000000a3
:0409510000000000a2
:0409520000fe0000a3
:0409530001ff800020
:0409540001ff80001f
:0409550003ffc000dc
:0409560003ffc38058
:0409570003e7c7c02b
:0409580003e7cfc022
:0409590003ffdfc0f9
:04095a0003ffff8018
:04095b0003ffff0097
:04095c0001fffe0099
:04095d0000fffc009b
:04095e00001bf80082
:04095f000007f0009d
:04096000000fe000a4
:04096100001fc000b3
:04096200003ffe0054
:04096300007fff8092
:0409640000ffff8011
:0409650001ffffc0cf
:0409660003fbffc0d0
:0409670003f3e7c0ef
:0409680003e3e7c0fe
:0409690001c3ffc007
:04096a000003ffc0c7
:04096b000003ffc0c6
:04096c000001ff8007
:04096d000000ff0087
:04096e000000000085
:04096f000000000084
:040970000000000083
:040971000000000082
:040972000000000081
:040973000000000080
:04097400000000007f
:04097500000000007e
:04097600000000007d
:04097700000000007c
:04097800000000007b
:04097900000000007a
:04097a000000000079
:04097b000000000078
:04097c000000000077
:04097d000000000076
:04097e000000000075
:04097f000000000074
:040980000000000073
:040981000000000072
:040982000000000071
:040983000000000070
:04098400000000006f
:04098500000000006e
:04098600000000006d
:04098700000000006c
:04098800000000006b
:04098900000000006a
:04098a000000000069
:04098b000000000068
:04098c000000000067
:04098d000000000066
:04098e000000000065
:04098f000000000064
:040990000000000063
:04099100003fc00063
:0409920000ffe00082
:0409930001fff00070
:0409940001fff0006f
:0409950003fff0006c
:0409960003f1f80071
:0409970003e0f80081
:0409980003e1f8007f
:0409990003e3f00084
:04099a0003e7f0007f
:04099b0003ffe00076
:04099c0003ffc00095
:04099d0001ff83c013
:04099e0001ff07c08e
:04099f0001ff07c08d
:0409a00001ff87c00c
:0409a10003ffc7c0c9
:0409a20003ffe7c0a8
:0409a30003e7f7c0af
:0409a40003e3ffc0aa
:0409a50003e1ffc0ab
:0409a60003e0ff80eb
:0409a70003f07f805a
:0409a80003ffff80ca
:0409a90001ffffc08b
:0409aa0001ffffc08a
:0409ab0000ffffc08a
:0409ac00003fe380a5
:0409ad000000000046
:0409ae000000000045
:0409af000000000044
:0409b0000000000043
:0409b1000000000042
:0409b2000000000041
:0409b3000000000040
:0409b400000000003f
:0409b500000000003e
:0409b600000000003d
:0409b700000000003c
:0409b800000000003b
:0409b900000000003a
:0409ba000000000039
:0409bb000000000038
:0409bc000000000037
:0409bd000000000036
:0409be000000000035
:0409bf000000000034
:0409c0000000000033
:0409c1000000000032
:0409c2000000000031
:0409c3000000000030
:0409c400000000002f
:0409c500000000002e
:0409c600000000002d
:0409c700000000002c
:0409c800000000002b
:0409c900000000002a
:0409ca000000000029
:0409cb000000000028
:0409cc000000000027
:0409cd000000000026
:0409ce000000000025
:0409cf000000000024
:0409d0000000000023
:0409d1000000000022
:0409d2000003c0005e
:0409d3000003c0005d
:0409d4000003c0005c
:0409d5000003c0005b
:0409d6000003c0005a
:0409d7000003c00059
:0409d8000003c00058
:0409d9000003c00057
:0409da000003c00056
:0409db000003c00055
:0409dc000003c00054
:0409dd000003c00053
:0409de000000000015
:0409df000000000014
:0409e0000000000013
:0409e1000000000012
:0409e2000000000011
:0409e3000000000010
:0409e400000000000f
:0409e500000000000e
:0409e600000000000d
:0409e700000000000c
:0409e800000000000b
:0409e900000000000a
:0409ea000000000009
:0409eb000000000008
:0409ec000000000007
:0409ed000000000006
:0409ee000000000005
:0409ef000000000004
:0409f0000000000003
:0409f1000000000002
:0409f2000000000001
:0409f3000000000000
:0409f40000000000ff
:0409f50000000000fe
:0409f60000000000fd
:0409f70000000000fc
:0409f80000000000fb
:0409f90000000000fa
:0409fa0000000000f9
:0409fb0000000000f8
:0409fc0000000000f7
:0409fd0000000000f6
:0409fe0000000000f5
:0409ff0000000000f4
:040a000000000000f2
:040a010000000000f1
:040a020000000000f0
:040a030000000000ef
:040a040000000000ee
:040a050000000000ed
:040a060000000000ec
:040a070000000000eb
:040a080000000000ea
:040a090000000000e9
:040a0a0000000000e8
:040a0b0000000000e7
:040a0c0000000000e6
:040a0d0000000000e5
:040a0e0000000000e4
:040a0f0000000000e3
:040a100000000000e2
:040a110000000000e1
:040a12000003ffc01e
:040a1300000fffc011
:040a1400001fffc000
:040a1500001fffc0ff
:040a1600003fc000dd
:040a1700003f00009c
:040a1800003e00009c
:040a1900003e00009b
:040a1a00003c00009c
:040a1b00003c00009b
:040a1c00003c00009a
:040a1d00003c000099
:040a1e00003c000098
:040a1f00003c000097
:040a2000003c000096
:040a2100003c000095
:040a2200003c000094
:040a2300003c000093
:040a2400003c000092
:040a2500003c000091
:040a2600003e00008e
:040a2700003e00008d
:040a2800003f00008b
:040a2900003fc000ca
:040a2a00001fffc0ea
:040a2b00001fffc0e9
:040a2c00000fffc0f8
:040a2d000003ffc003
:040a2e0000000000c4
:040a2f0000000000c3
:040a300000000000c2
:040a310000000000c1
:040a320000000000c0
:040a330000000000bf
:040a340000000000be
:040a350000000000bd
:040a360000000000bc
:040a370000000000bb
:040a380000000000ba
:040a390000000000b9
:040a3a0000000000b8
:040a3b0000000000b7
:040a3c0000000000b6
:040a3d0000000000b5
:040a3e0000000000b4
:040a3f0000000000b3
:040a400000000000b2
:040a410000000000b1
:040a420000000000b0
:040a430000000000af
:040a440000000000ae
:040a450000000000ad
:040a460000000000ac
:040a470000000000ab
:040a480000000000aa
:040a490000000000a9
:040a4a0000000000a8
:040a4b0000000000a7
:040a4c0000000000a6
:040a4d0000000000a5
:040a4e0000000000a4
:040a4f0000000000a3
:040a500000000000a2
:040a510000000000a1
:040a520003ffc000de
:040a530003fff000ad
:040a540003fff000ac
:040a550003fff800a3
:040a56000003fc009d
:040a57000000fc009f
:040a580000007c001e
:040a590000007c001d
:040a5a0000003c005c
:040a5b0000003c005b
:040a5c0000003c005a
:040a5d0000003c0059
:040a5e0000003c0058
:040a5f0000003c0057
:040a600000003c0056
:040a610000003c0055
:040a620000003c0054
:040a630000003c0053
:040a640000003c0052
:040a650000003c0051
:040a660000007c0010
:040a670000007c000f
:040a68000000fc008e
:040a69000003fc008a
:040a6a0003fff8008e
:040a6b0003fff8008d
:040a6c0003fff00094
:040a6d0003ffc000c3
:040a6e000000000084
:040a6f000000000083
:040a70000000000082
:040a71000000000081
:040a72000000000080
:040a7300000000007f
:040a7400000000007e
:040a7500000000007d
:040a7600000000007c
:040a7700000000007b
:040a7800000000007a
:040a79000000000079
:040a7a000000000078
:040a7b000000000077
:040a7c000000000076
:040a7d000000000075
:040a7e000000000074
:040a7f000000000073
:040a80000000000072
:040a81000000000071
:040a82000000000070
:040a8300000000006f
:040a8400000000006e
:040a8500000000006d
:040a8600000000006c
:040a8700000000006b
:040a8800000000006a
:040a89000000000069
:040a8a000000000068
:040a8b000000000067
:040a8c000000000066
:040a8d000000000065
:040a8e000000000064
:040a8f000000000063
:040a90000000000062
:040a91000000000061
:040a92000000000060
:040a9300000000005f
:040a940001c003801a
:040a950003e007c0b3
:040a960003f00fc09a
:040a970003f81fc081
:040a980001fc3f809e
:040a990000fe7f00dc
:040a9a00007ffe00db
:040a9b00003ffc001c
:040a9c0003ffffc095
:040a9d0003ffffc094
:040a9e0003ffffc093
:040a9f0003ffffc092
:040aa000003ffc0017
:040aa100007ffe00d4
:040aa20000fe7f00d3
:040aa30001fc3f8093
:040aa40003f81fc074
:040aa50003f00fc08b
:040aa60003e007c0a2
:040aa70001c0038007
:040aa800000000004a
:040aa9000000000049
:040aaa000000000048
:040aab000000000047
:040aac000000000046
:040aad000000000045
:040aae000000000044
:040aaf000000000043
:040ab0000000000042
:040ab1000000000041
:040ab2000000000040
:040ab300000000003f
:040ab400000000003e
:040ab500000000003d
:040ab600000000003c
:040ab700000000003b
:040ab800000000003a
:040ab9000000000039
:040aba000000000038
:040abb000000000037
:040abc000000000036
:040abd000000000035
:040abe000000000034
:040abf000000000033
:040ac0000000000032
:040ac1000000000031
:040ac2000000000030
:040ac300000000002f
:040ac400000000002e
:040ac500000000002d
:040ac600000000002c
:040ac700000000002b
:040ac800000000002a
:040ac9000000000029
:040aca000000000028
:040acb000000000027
:040acc000000000026
:040acd000000000025
:040ace000000000024
:040acf000000000023
:040ad0000000000022
:040ad1000000000021
:040ad2000000000020
:040ad300000000001f
:040ad4000003c0005b
:040ad5000003c0005a
:040ad6000003c00059
:040ad7000003c00058
:040ad8000003c00057
:040ad9000003c00056
:040ada000003c00055
:040adb000003c00054
:040adc0003ffffc055
:040add0003ffffc054
:040ade0003ffffc053
:040adf0003ffffc052
:040ae0000003c0004f
:040ae1000003c0004e
:040ae2000003c0004d
:040ae3000003c0004c
:040ae4000003c0004b
:040ae5000003c0004a
:040ae6000003c00049
:040ae7000003c00048
:040ae800000000000a
:040ae9000000000009
:040aea000000000008
:040aeb000000000007
:040aec000000000006
:040aed000000000005
:040aee000000000004
:040aef000000000003
:040af0000000000002
:040af1000000000001
:040af2000000000000
:040af30000000000ff
:040af40000000000fe
:040af50000000000fd
:040af60000000000fc
:040af70000000000fb
:040af80000000000fa
:040af90000000000f9
:040afa0000000000f8
:040afb0000000000f7
:040afc0000000000f6
:040afd0000000000f5
:040afe0000000000f4
:040aff0000000000f3
:040b000000000000f1
:040b010000000000f0
:040b020000000000ef
:040b030000000000ee
:040b040000000000ed
:040b050000000000ec
:040b060000000000eb
:040b070000000000ea
:040b080000000000e9
:040b090000000000e8
:040b0a0000000000e7
:040b0b0000000000e6
:040b0c0000000000e5
:040b0d0000000000e4
:040b0e0000000000e3
:040b0f0000000000e2
:040b100000000000e1
:040b110000000000e0
:040b120000000000df
:040b130000000000de
:040b140000000000dd
:040b150000000000dc
:040b160000000000db
:040b170000000000da
:040b1800003fc000da
:040b1900003fc000d9
:040b1a00003fc000d8
:040b1b00003fc000d7
:040b1c00003fc000d6
:040b1d00003fc000d5
:040b1e00003fc000d4
:040b1f00003fc000d3
:040b20000003c0000e
:040b21000003c0000d
:040b22000007c00008
:040b2300000fc000ff
:040b2400003fc000ce
:040b2500003fc000cd
:040b2600003f80000c
:040b2700003f00008b
:040b280000000000c9
:040b290000000000c8
:040b2a0000000000c7
:040b2b0000000000c6
:040b2c0000000000c5
:040b2d0000000000c4
:040b2e0000000000c3
:040b2f0000000000c2
:040b300000000000c1
:040b310000000000c0
:040b320000000000bf
:040b330000000000be
:040b340000000000bd
:040b350000000000bc
:040b360000000000bb
:040b370000000000ba
:040b380000000000b9
:040b390000000000b8
:040b3a0000000000b7
:040b3b0000000000b6
:040b3c0000000000b5
:040b3d0000000000b4
:040b3e0000000000b3
:040b3f0000000000b2
:040b400000000000b1
:040b410000000000b0
:040b420000000000af
:040b430000000000ae
:040b440000000000ad
:040b450000000000ac
:040b460000000000ab
:040b470000000000aa
:040b480000000000a9
:040b490000000000a8
:040b4a0000000000a7
:040b4b0000000000a6
:040b4c0000000000a5
:040b4d0000000000a4
:040b4e0000000000a3
:040b4f0000000000a2
:040b500000000000a1
:040b510000000000a0
:040b5200000000009f
:040b5300000000009e
:040b5400000000009d
:040b5500000000009c
:040b5600000000009b
:040b5700000000009a
:040b58000000000099
:040b59000000000098
:040b5a0003ffffc0d6
:040b5b0003ffffc0d5
:040b5c0003ffffc0d4
:040b5d0003ffffc0d3
:040b5e000000000093
:040b5f000000000092
:040b60000000000091
:040b61000000000090
:040b6200000000008f
:040b6300000000008e
:040b6400000000008d
:040b6500000000008c
:040b6600000000008b
:040b6700000000008a
:040b68000000000089
:040b69000000000088
:040b6a000000000087
:040b6b000000000086
:040b6c000000000085
:040b6d000000000084
:040b6e000000000083
:040b6f000000000082
:040b70000000000081
:040b71000000000080
:040b7200000000007f
:040b7300000000007e
:040b7400000000007d
:040b7500000000007c
:040b7600000000007b
:040b7700000000007a
:040b78000000000079
:040b79000000000078
:040b7a000000000077
:040b7b000000000076
:040b7c000000000075
:040b7d000000000074
:040b7e000000000073
:040b7f000000000072
:040b80000000000071
:040b81000000000070
:040b8200000000006f
:040b8300000000006e
:040b8400000000006d
:040b8500000000006c
:040b8600000000006b
:040b8700000000006a
:040b88000000000069
:040b89000000000068
:040b8a000000000067
:040b8b000000000066
:040b8c000000000065
:040b8d000000000064
:040b8e000000000063
:040b8f000000000062
:040b90000000000061
:040b91000000000060
:040b9200000000005f
:040b9300000000005e
:040b9400000000005d
:040b9500000000005c
:040b9600000000005b
:040b9700000000005a
:040b98000000000059
:040b99000000000058
:040b9a000000000057
:040b9b000000000056
:040b9c00003fc00056
:040b9d00003fc00055
:040b9e00003fc00054
:040b9f00003fc00053
:040ba000003fc00052
:040ba100003fc00051
:040ba200003fc00050
:040ba300003fc0004f
:040ba400000000004d
:040ba500000000004c
:040ba600000000004b
:040ba700000000004a
:040ba8000000000049
:040ba9000000000048
:040baa000000000047
:040bab000000000046
:040bac000000000045
:040bad000000000044
:040bae000000000043
:040baf000000000042
:040bb0000000000041
:040bb1000000000040
:040bb200000000003f
:040bb300000000003e
:040bb400000000003d
:040bb500000000003c
:040bb600000000003b
:040bb700000000003a
:040bb8000000000039
:040bb9000000000038
:040bba000000000037
:040bbb000000000036
:040bbc000000000035
:040bbd000000000034
:040bbe000000000033
:040bbf000000000032
:040bc0000000000031
:040bc1000000000030
:040bc200000000002f
:040bc300000000002e
:040bc400000000002d
:040bc500000000002c
:040bc600000000002b
:040bc700000000002a
:040bc8000000000029
:040bc9000000000028
:040bca000000000027
:040bcb000000000026
:040bcc000000000025
:040bcd000000000024
:040bce000000000023
:040bcf000000000022
:040bd0000000000021
:040bd1000000000020
:040bd200000003c05c
:040bd300000007c057
:040bd400000007c056
:040bd500000007c055
:040bd600000007c054
:040bd700000007c053
:040bd80000000fc04a
:040bd90000001fc039
:040bda0000003f8058
:040bdb0000007f0097
:040bdc000000fe0017
:040bdd000001fc0017
:040bde000003f80018
:040bdf000007f0001b
:040be000000fe00022
:040be100001fc00031
:040be200003f800050
:040be300007f00008f
:040be40000fe00000f
:040be50001fc00000f
:040be60003f8000010
:040be70003f0000017
:040be80003e0000026
:040be90003c0000045
:040bea0003c0000044
:040beb0003c0000043
:040bec0003c0000042
:040bed0003c0000041
:040bee000000000003
:040bef000000000002
:040bf0000000000001
:040bf1000000000000
:040bf20000000000ff
:040bf30000000000fe
:040bf40000000000fd
:040bf50000000000fc
:040bf60000000000fb
:040bf70000000000fa
:040bf80000000000f9
:040bf90000000000f8
:040bfa0000000000f7
:040bfb0000000000f6
:040bfc0000000000f5
:040bfd0000000000f4
:040bfe0000000000f3
:040bff0000000000f2
:040c000000000000f0
:040c010000000000ef
:040c020000000000ee
:040c030000000000ed
:040c040000000000ec
:040c050000000000eb
:040c060000000000ea
:040c070000000000e9
:040c080000000000e8
:040c090000000000e7
:040c0a0000000000e6
:040c0b0000000000e5
:040c0c0000000000e4
:040c0d0000000000e3
:040c0e0000000000e2
:040c0f0000000000e1
:040c100000000000e0
:040c110000000000df
:040c1200003ffc00a3
:040c130000ffff00df
:040c140001ffff00dd
:040c150001ffff805c
:040c160003fc3fc0dc
:040c170003f00fc017
:040c180003e00fc026
:040c190003e01fc015
:040c1a0003c03fc014
:040c1b0003c07fc0d3
:040c1c0003c0ffc052
:040c1d0003c1ffc050
:040c1e0003c3ffc04d
:040c1f0003c7f7c050
:040c200003cfe7c057
:040c210003dfc7c066
:040c220003ff87c085
:040c230003ff07c004
:040c240003fe07c004
:040c250003fc07c005
:040c260003f807c008
:040c270003f007c00f
:040c280003f00fc006
:040c290003fc3fc0c9
:040c2a0001ffff8047
:040c2b0001ffff8046
:040c2c0000ffff00c6
:040c2d00003ffc0088
:040c2e0000000000c2
:040c2f0000000000c1
:040c300000000000c0
:040c310000000000bf
:040c320000000000be
:040c330000000000bd
:040c340000000000bc
:040c350000000000bb
:040c360000000000ba
:040c370000000000b9
:040c380000000000b8
:040c390000000000b7
:040c3a0000000000b6
:040c3b0000000000b5
:040c3c0000000000b4
:040c3d0000000000b3
:040c3e0000000000b2
:040c3f0000000000b1
:040c400000000000b0
:040c410000000000af
:040c420000000000ae
:040c430000000000ad
:040c440000000000ac
:040c450000000000ab
:040c460000000000aa
:040c470000000000a9
:040c480000000000a8
:040c490000000000a7
:040c4a0000000000a6
:040c4b0000000000a5
:040c4c0000000000a4
:040c4d0000000000a3
:040c4e0000000000a2
:040c4f0000000000a1
:040c500000000000a0
:040c5100000000009f
:040c52000003c000db
:040c53000007c000d6
:040c5400000fc000cd
:040c5500001fc000bc
:040c5600003fc0009b
:040c5700007fc0005a
:040c580000ffc000d9
:040c590001ffc000d7
:040c5a0003fbc000d8
:040c5b0003f3c000df
:040c5c0003e3c000ee
:040c5d0001c3c0000f
:040c5e000003c000cf
:040c5f000003c000ce
:040c60000003c000cd
:040c61000003c000cc
:040c62000003c000cb
:040c63000003c000ca
:040c64000003c000c9
:040c65000003c000c8
:040c66000003c000c7
:040c67000003c000c6
:040c68000003c000c5
:040c69000003c000c4
:040c6a0003ffffc0c5
:040c6b0003ffffc0c4
:040c6c0003ffffc0c3
:040c6d0003ffffc0c2
:040c6e000000000082
:040c6f000000000081
:040c70000000000080
:040c7100000000007f
:040c7200000000007e
:040c7300000000007d
:040c7400000000007c
:040c7500000000007b
:040c7600000000007a
:040c77000000000079
:040c78000000000078
:040c79000000000077
:040c7a000000000076
:040c7b000000000075
:040c7c000000000074
:040c7d000000000073
:040c7e000000000072
:040c7f000000000071
